:107000000C9413390C943D390C943D390C943D3952
:107010000C943D390C943D390C943D390C943D3918
:107020000C943D390C943D390C943D390C943D3908
:107030000C943D390C943D390C943D390C943D39F8
:107040000C943D390C943D390C943D390C943D39E8
:107050000C943D39FC01808180936301109264019E
:1070600080916201813029F483E08093610082E0A5
:1070700004C084E08093610081E080936201089500
:107080000F931F93DB019BB390589BBB0FB7F894F2
:10709000482F50E05695542F44275795479507B6EB
:1070A00000FCFDCFE199FECF83E0FA018093570009
:1070B000E89560E011E08C9111967C91119707B6EC
:1070C00000FCFDCFE199FECF129690E0FA01E60FA9
:1070D000F11D372F20E0822B932B0C0110935700CA
:1070E000E89511246E5F603831F707B600FCFDCFDC
:1070F000E199FECF85E0FA0180935700E89507B645
:1071000000FCFDCFE199FECF81E180935700E89527
:107110000FBF1F910F9108951F93BC0180916201D1
:107120008230A9F485E080936100109164016F5F63
:107130007F4F812F0E9440381F5F10936401809120
:107140006301181711F082E006C083E004C086E0F6
:107150008093610081E0809362011F91089580E037
:1071600090E00E944939849B04C0853011F40C944E
:107170000000D89A089580916201833051F487E02D
:107180008093610080E090E065E00E9454390C94A7
:10719000000088E08093610081E08093620108959F
:1071A00080916200823051F0833018F48130A9F46C
:1071B00015C0833041F0843081F40AC083E690E04A
:1071C0000E942A38089583E690E00E948C38089542
:1071D00083E690E00E94BB38089582E080936100CE
:1071E00008958C98949A8FEF8ABB0E94AF380E94C2
:1071F000893981E080936201809361000E94613946
:107200000E94D038FBCF87B38F7487BBBE9A8DB1F5
:1072100084768DB98DB184668DB908958FB9779BC9
:10722000FECF8FB108958FE598E09EBF8DBF42E6F7
:1072300051E040565040A0E6B0E0E8E1F3E720E03E
:1072400030E004C081918D932F5F3F4F24173507A5
:10725000C8F325E631E022563140E2E6F1E080E075
:1072600090E002C01192019682179307D8F38FE540
:1072700098E09EBF8DBF0C94F13878941F920F92C6
:107280000FB60F92112418950F900FBE0F901F90FC
:1072900018959C01E199FECF3FBB2EBB8FB7F894A8
:1072A000E09A8FBF8DB308959C01E199FECF3FBB5B
:1072B0002EBB6DBB8FB7F894E198E29AE19A8FBF2D
:1072C00008950F931F93DF93CF930F92CDB7DEB73F
:1072D00080E00E940E398093600090E00CC0092F7E
:1072E00010E09F5F892F99830E940E390E591F4F1E
:1072F000F8018083998180916000981780F38091D4
:1073000061000E940E390F90CF91DF911F910F9174
:0873100008950E94033908955D
:107318000000000000000000000000000000000065
:107328000000000000000000000000000000000055
:107338000000000000000000000000000000000045
:107348000000000000000000000000000000000035
:107358000000000000000000000000000000000025
:107368000000000000000000000000000000000015
:107378000000000000000000000000000000000005
:1073880000000000000000000000000000000000F5
:1073980000000000000000000000000000000000E5
:1073A80000000000000000000000000000000000D5
:1073B80000000000000000000000000000000000C5
:1073C80000000000000000000000000000000000B5
:1073D80000000000000000000000000000000000A5
:1073E8000000000000000000000000000000000095
:1073F8000000000000000000000000000000000085
:107408000000000000000000000000000000000074
:02741800000072
:040000030000722661
:00000001FF
